:02000000CD2A07
:0E000600533083120313FD00FD0B0728080082
:10001400243083120313FC00B530FD00FD0B1028BF
:0A002400FC0B10280000000008008B
:0C002E00000000000000000000000800BE
:10003A0083120313DC1B23288613242886175C1BD0
:10004A002828061329280617DC1A2D2886122E2896
:10005A0086165C1A322806123328061628183728FC
:10006A00061538280611861517208611DC193F282F
:10007A008613402886175C19442806134528061754
:10008A00DC18492886124A2886165C184E28061259
:10009A004F280616281853280615542806118615BF
:1000AA0017208611281C5B280A205C2803200800D8
:1000BA008312031328105B08DC001D202814080093
:1000CA00710DF80DF90D7408F8027508031C750F07
:1000DA00F902F00DF10D0F30FC00710DF80DF90D5C
:1000EA007408701C7E28F8027508031C750FF90243
:1000FA008328F80775080318750FF907F00DF10D35
:10010A00FC0B722870188F287408F80775080318F2
:08011A00750FF9070000080051
:10012200A328803083120313D700B628C030D7002B
:10013200B6289430D700B628D430D700B6288030FD
:10014200D700B628831203135708013A03199228DD
:100152005708023A031997285708033A03199A28AD
:100162005708043A03199D28A0285803F00057089D
:10017200F0077008D7007008DC001D202810DA0193
:100182005A085907840000080319CF285A0859074A
:1001920084000008DB005D20DA0AC1282814080068
:1001A200831203137408003A031DE0287508003A0D
:1001B200031DE028FF30F0007F30F100392983125F
:1001C2000313FD01F901F8017108700403190034E9
:1001D20071087506FA00FA1BFD09FB01F51FF628E6
:1001E200F409F509F40A0319F50AF11FFD28F009CB
:1001F200F109F00A0319F10A71087504FA00FA1BF1
:10020200122965207B182529FD1F0034F009F10908
:10021200F00A0319F10AF809F909F80A0319F90AA7
:100222000034F51F2129F11B1D297108F9007008FE
:10023200F800F101F0010529F101F001F00A0034A2
:10024200F109F009FB0A0229F80A0319F90A7408EC
:100252007802031D052975087902031D0529F90194
:10026200F801F00A0319F10AF11F05290000FF3411
:02027200080082
:0E027400831203132A088A002908820008005A
:10028200831203134E08F0000508F10070080319E9
:100292004E29F10CF113FF3E48297108013A031D62
:1002A2005E2980304F06F00080307002031D5B290A
:1002B20006304E0203185E29632951085204031DB9
:1002C2006329C8290430F4000030F5004E08F0001C
:1002D2004F08F100D1207808F0007908F100700A87
:1002E200D7008030F00080304F067002031D7B295A
:1002F2004E08033C031880290B30D3008129D30117
:100302005308093ED8004E08500784000008F00048
:100312007008031D8F292430D40091292630D4007F
:100322005408D90091204E085007D6005608840080
:100332000008013EF000F1010318F10A0230F40056
:100342000030F500D1207808F0007908F100560855
:100352008400700880004E08F1000130F00071083E
:100362000319B729F00D7010FF3EB12970088806F5
:100372000730FB005830FC005930FD00FD0BBF294F
:10038200FC0BBF29FB0BBF2900000000422A0630EC
:100392004E02F0000030031C013E4F02F10009083A
:1003A200F10070080319D929F10CF113FF3ED3298A
:1003B2007108013A031DE9298030F00080304F06B0
:1003C2007002031DE6294E08053C0318E929EE29AF
:1003D20051085204031DEE29422A0430F400003071
:1003E200F5004E08F0004F08F100D1207808F00027
:1003F2007908F100700AD7001430D8004E0850076F
:1004020084000008F0007008031D0A2A2030D5007D
:100412000C2A2230D5005508D90091204E085007E9
:10042200D600560884000008013EF000F1010318CE
:10043200F10A0230F4000030F500D1207808F00013
:100442007908F10056088400700880004E08F10017
:100452000130F00071080319322AF00D7010FF3ECE
:100462002C2A700888060730FB005830FC005930EF
:10047200FD00FD0B3A2AFC0B3A2AFB0B3A2A00003C
:04048200000008006E
:10048600831203131A08F100981C4B2A1812181627
:060496007108F0000800EF
:0E049C000030831203138C1A0130F0000800A8
:1004AA008316031386110611061286120613861383
:1004BA0083128611061186130613861206120A2063
:1004CA000A200A20861606168615172086110A2083
:1004DA008615172086110A208615172086110A20EC
:1004EA0006128615172086110A20861517208611EE
:1004FA00861286178615172086110A208613061675
:10050A0086151720861106128615172086110A20CD
:10051A0086151720861106168615172086110A20B9
:10052A0006128615172086118617061786160616CE
:0C053A008615172086110A2028140800DE
:0C0546008312031395011712971208008E
:10055200831603130711831212150C309704080037
:100562008316031398169030831298008316871708
:10057200071383128C1EC02A1A08F000BA2A080038
:100582003A218A110A128000840AA90A0319AA0AC6
:08059200F003031DC12A08005B
:10059A00313083120313A000A1013030A200A3015D
:1005AA003130A400A5013030A600A701AE01AF0189
:1005BA004F30B0005530B1005430B2004C30B30067
:1005CA004530B4005430B5005830B6003A30B70060
:1005DA003030B800B901BA01BB01BC01BD01BE018E
:1005EA00BF01C001C101C201C301C401C501C601E5
:1005FA00C701C801C901CA01CB01CC01CD0107302D
:10060A0083169F0007309C006F30850007308900F1
:10061A00880107118312880112149210F930831687
:10062A009200A322A9228130831699001815B122BB
:10063A0055220130DC001D200C30DC001D20AC01ED
:10064A00AD0180302D06F00080307002031D2F2B83
:10065A0008302C0203185C2B2C08313EB6000430FB
:10066A00F4000030F5002C08F0002D08F100D1202C
:10067A007808F0007908F100700AD7008030F0009D
:10068A0080302D067002031D4C2B2C08033C0318E6
:10069A00512B0C30AB00532B0130AB002B08D80088
:1006AA003030D9009120AC0A0319AD0A262B4E220C
:1006BA0070080319882B432230307002F100F201CE
:1006CA00031CF2037108AC007208AD008030720698
:1006DA00F00080307002031D742B08307102031879
:1006EA00862B7F30F00080302D067002031D7F2B91
:1006FA002C08FF3C0318862B0130AE000030AF00F7
:10070A00882BAC01AD012C08CE002D08CF003A3061
:10071A00D0002E08D1002F08D20041212E082F0424
:10072A0003199C2BAC01AD01AE01AF01B12B2C0812
:10073A00013EF00000300318013E2D07F100083099
:10074A00F4000030F500D1207808F0007908F100B3
:0C075A007008AC007108AD005C2BB22BE5
:02400E004A2F37
:00000001FF
